:020000040800F2
:10000000C016002021020008F51500088312000820
:10001000F31500088B0300089D190008000000007C
:10002000000000000000000000000000890100083E
:100030008D03000800000000CD0100089918000899
:100040003B0200083B0200083B0200083B0200089C
:100050003B0200083B0200083B0200083B0200088C
:100060003B0200083B0200083B0200083B0200087C
:100070003B0200083B0200083B0200083B0200086C
:100080003B0200083B0200083B0200083B0200085C
:100090003B0200083B0200083B0200083B0200084C
:1000A0003B0200083B0200083B0200083B0200083C
:1000B0003B0200083B020008251900083B0200082B
:1000C0003B0200083B0200083B0200083B0200081C
:1000D0003B0200083B0200083B0200083B0200080C
:1000E0003B0200083B0200083B02000800F002F857
:1000F00000F03AF80AA090E8000C82448344AAF188
:100100000107DA4501D100F02FF8AFF2090EBAE885
:100110000F0013F0010F18BFFB1A43F0010318473B
:10012000C82B0000E82B0000103A24BF78C878C123
:10013000FAD8520724BF30C830C144BF04680C60ED
:10014000704700000023002400250026103A28BF35
:1001500078C1FBD8520728BF30C148BF0B60704739
:100160001FB51FBD10B510BD00F0D6F81146FFF742
:10017000F7FF01F025FC00F0F4F803B4FFF7F2FFFD
:1001800003BC00F0FBF80000224B19680868B0E8D7
:10019000F00F80F30988BFF36F8F4FF0000080F3FA
:1001A00011884EF00D0E70470000000006480068F0
:1001B000006880F3088862B661B6BFF34F8FBFF363
:1001C0006F8F00DF00BF00BF08ED00E0EFF3098094
:1001D000BFF36F8F0F4B1A6820E9F00F106008B55E
:1001E0004FF0500080F31188BFF34F8FBFF36F8F34
:1001F00001F0B0FF4FF0000080F31188BDE8084027
:1002000019680868B0E8F00F80F30988BFF36F8FB2
:10021000704700BF1C000020EFF30580704700000E
:100220000948804709480047FEE7FEE7FEE7FEE78A
:10023000FEE7FEE7FEE7FEE7FEE7FEE704480549C6
:10024000054A064B7047000023190008ED0000081E
:10025000C0100020C0160020C0120020C0120020D4
:1002600010B5203AC0F00B80B1E81850203AA0E851
:100270001850B1E81850A0E81850BFF4F5AF5FEA85
:10028000027C24BFB1E81850A0E8185044BF18C938
:1002900018C0BDE810405FEA827C24BF51F8043BDF
:1002A00040F8043B08BF7047D20728BF31F8023B33
:1002B00048BF11F8012B28BF20F8023B48BF00F8C7
:1002C000012B70474FF0000200B513469446964646
:1002D000203922BFA0E80C50A0E80C50B1F1200159
:1002E000BFF4F7AF090728BFA0E80C5048BF0CC007
:1002F0005DF804EB890028BF40F8042B08BF704765
:1003000048BF20F8022B11F0804F18BF00F8012BD6
:100310007047704770477047754600F02BF8AE463F
:1003200005006946534620F00700854618B020B501
:10033000FFF784FFBDE820404FF000064FF00007B4
:100340004FF000084FF0000B21F00701AC46ACE87D
:10035000C009ACE8C009ACE8C009ACE8C0098D46EA
:10036000704710B50446AFF300802046BDE810404A
:10037000FFF703BF004870475C10002001491820B8
:10038000ABBEFEE7260002007047FEE770470000A4
:100390002DE9F84FDFF8B8910024A9F1040B2346AA
:1003A0000F2709F1040AABF1040EC9E00125A540AD
:1003B0002A40AA427DD1674ED1F804C0ACEB0608B2
:1003C000B44532D014DCBCF1030F3AD009DCBCF1E7
:1003D000000F2AD0BCF1010F1CD0BCF1020F31D1AB
:1003E0001DE0BCF1110F17D0BCF1120F2AD119E09A
:1003F000B8F5881F19D006DCB8F5803F15D0B8F5E0
:10040000801F1FD111E0B8F5001F0ED0B8F5041FF2
:1004100018D10AE0CB6815E0CB681B1D12E0CB6851
:1004200008330FE0CB680C330CE08B682BB1012B49
:100430004FF0080303D0456104E0042302E00561A6
:1004400000E00023FF2A01D8064601E000F104067F
:100450004FEA840501D9A5F12005D6F8008007FAF6
:1004600005FC28EA0C0803FA05F548EA0508C6F871
:1004700000804D68ED0062D5374DAE6946F001064B
:10048000AE61AD6924F0030605F001050095334D1A
:1004900006EB050CDCF80850A607360F07FA06F83D
:1004A00025EA0805DFF8B880404503D14FF0000881
:1004B00017E044E0DFF8AC80404502D14FF001087E
:1004C0000FE0DFF8A480404502D14FF0020808E0B9
:1004D000DFF89880404502D14FF0030801E04FF06B
:1004E000040808FA06F848EA0508CCF808804D68C0
:1004F000D9F80060ED024D4601D5164300E0964361
:100500002E604D68DAF80060AD02554601D51643FD
:1005100000E096432E604D68DBF80060AD035D4659
:1005200001D5164300E096432E604D68DEF800606A
:10053000ED03754601D5164300E096432E60641C1A
:100540000D682A46E5407FF431AFBDE8F88F000022
:10055000080401400000111000100240000001409A
:1005600000080140000C014000100140001401404F
:1005700001488068704700000C00002070B504003E
:1005800025D094F83D00002520B984F83C50204641
:1005900000F0E6F9242084F83D002068016821F08D
:1005A000010101602068016841F400410160206898
:1005B000016821F40041016000F080FB4D4A616850
:1005C000914201D84C4900E04C49884201D20120B7
:1005D00070BD4B492368B0FBF1F15E6826F03F0621
:1005E0000E435E606368934206D94FF49673594395
:1005F0004FF47A73B1FBF3F12368491C1E6A26F0AD
:100600003F06314319626168914210D84900401E8B
:10061000B0FBF1F2521CC2F30B02042A01D20420F7
:1006200022E0B0FBF1F0401CC0F30B001CE0A2681C
:10063000F2B301EBC10303EB0116431EB3FBF6F368
:100640005B1C43F480431B0549D092B301EBC1020C
:1006500002EB0111401EB0FBF1F0401CC0F30B0097
:1006600040F4804040F400402168CA694CF6FF73B2
:100670009A431043C861D4E9071001432068026817
:1006800022F0C00211430160D4E903010143206854
:10069000826848F2FF339A4311438160D4E905012F
:1006A00008432168CA6822F0FF021043C86001E0D5
:1006B0000EE016E02068016841F001010160256448
:1006C000202084F83D00256384F83E50002070BD52
:1006D00001EB4106431EB3FBF6F35B1CB3E70120BD
:1006E000C2E701EB4101401EB0FBF1F0401CC0F33A
:1006F0000B00B7E7A086010080841E0000093D00C2
:1007000040420F002DE9F84F1F4690468A460446A6
:10071000DDF82890FFF72CFF054694F83D002028CF
:100720007FD11923012240492046009500F090FE18
:10073000002876D194F83C00012872D0012084F87A
:100740003C0020680168C90703D1016841F001013C
:1007500001602068016821F400610160212084F8B3
:100760003D00102084F83E0000262664C4F8248052
:100770006785608D20852D48E0622B464A465146AC
:10078000204600F097FD90B920684169806900908B
:1007900036E02A464946204600F000FF50B1206C62
:1007A000042804D12068016841F40071016001202F
:1007B000BDE8F88F606A216800780861606A401CB3
:1007C0006062618D491E6185218D491E89B2218536
:1007D00022685369DB435B070BD451B10078106189
:1007E000606A401C6062608D401E6085208D401EE6
:1007F00020852A464946204600F0FEFD0028CED13D
:10080000208D0028C5D154F83D0B016841F40071DA
:100810000160202004F81E09E67766770020C7E70C
:10082000FFE70220C4E70000020010000000FFFF05
:100830002DE9FF4F83B09A46DDE9119793460446B0
:10084000DDF84080FFF794FE054694F83D0020282F
:100850007FD11923012240492046009500F0F8FD80
:10086000002876D194F83C00012872D0012084F849
:100870003C0020680168C90703D1016841F001010B
:1008800001602068016821F400610160212084F882
:100890003D00402084F83E0000262664C4F82480F1
:1008A000A4F82A90608D20852C48E062CDE900757F
:1008B00053465A462046049900F04AFD70B930E08C
:1008C0002A463946204600F069FE58B1206C0428BB
:1008D00004D12068016841F400710160012007B073
:1008E000BDE8F08F606A216800780861606A401C8A
:1008F0006062218D491E89B22185628D521E6285FA
:1009000022685369DB435B070BD469B1007810613F
:10091000606A401C6062208D401E2085608D401EF4
:100920006085208D0028CBD12A463946204600F02C
:1009300063FD0028CAD154F83D0B016841F40071F1
:100940000160202004F81E09E67766770020C6E7DC
:10095000FFE70220C3E70000020010000000FFFFD5
:1009600010B586B0002100910191029103910068B9
:100970000F4988421AD10F4CA06940F00800A061CD
:10098000A069694600F008000490C0200090122081
:100990000190032003900848FFF7FAFCE06940F457
:1009A0000010E061E06900F40010049006B010BD92
:1009B0000054004000100240000C014002488168D1
:1009C00002781144816070470C000020074810B580
:1009D000016841F010010160032000F0A7F80F202A
:1009E00000F006F800F050F8002010BD0020024092
:1009F00030B505461F4887B0C16941F00401C161A7
:100A0000C06906A900F00400009001A800F036F9C2
:100A10000498B0B100F052F940001749174AB0FBF2
:100A2000F1F11748491E0260416040F2E7320021AF
:100A3000C0E903218160816100F008FB040003D05C
:100A400015E000F03BF9E8E70D4800F02DFB04004D
:100A50000DD11E2000F03CF8102D07D200222946AF
:100A60001E2000F043F80748056000E0012407B0AD
:100A7000204630BD0010024040420F0000080040F8
:100A800024030020100000200F4808B5816941F0C0
:100A900001018161816901F001010091C16941F0A9
:100AA0008051C161C069002200F0805000900F2188
:100AB000901E00F01BF80548416821F0E06141F00C
:100AC0000071416008BD00000010024000000140BC
:100AD000002809DB00F01F0201219140400980003D
:100AE00000F1E020C0F8001170470000F0B40E4B98
:100AF0001B680C46C3F30223C3F10705042D00D97C
:100B00000425191D072901D2002300E0DB1E012660
:100B100006FA05F1491E214099409E40761E164076
:100B20003143F0BC00F03BBF0CED00E0064900F0A3
:100B3000070208684FF6FF03184040EA0220034A04
:100B400010430860704700000CED00E00000FA055B
:100B50002DE9F0470F46050061D0434E306800F0A4
:100B60000700B84209D2306820F0070038433060EF
:100B7000306800F00700B84251D128683B4C81072B
:100B800012D5400703D5606840F4E06060602878C3
:100B9000000703D5606840F4605060606068A96831
:100BA00020F0F000084360602878C00728D068680B
:100BB000012810D02168022810D0890700292EDAD8
:100BC000616821F0030101436160FFF7D1FC8046B9
:100BD00041F288390DE021688903EFE78901EDE7EB
:100BE000FFF7C6FCA0EB0801494502D90320BDE888
:100BF000F0876068696800F00C00B0EB810FEFD1FE
:100C0000306800F00700B8420BD9306820F00700C8
:100C100038433060306800F00700B84201D001204E
:100C2000E5E72878400705D56068E96820F4E060CA
:100C3000084360602878000706D56068296920F4B9
:100C4000605040EAC100606000F048F86168084AFE
:100C5000C1F30311515CC8400649086006480068AA
:100C6000FFF7C6FE0020C2E700200240001002404D
:100C7000C22C000818000020100000200F22026083
:100C80000C4A536803F003034360536803F0F00316
:100C90008360536803F4E063C36052684FF4E06319
:100CA00003EAD20202610448006800F0070008600D
:100CB000704700000010024000200240044805492F
:100CC00000684968044AC1F30221515CC84070477A
:100CD0001800002000100240D22C00080E4A516873
:100CE0000E4801F00C03042B11D0082B0FD10C4837
:100CF000C1F38343C903C05C0AD55168084AC1F3F4
:100D00004041921E515C054A5043B0FBF1F07047E0
:100D100004494843704700000010024000127A0066
:100D2000B22C000800093D002DE9F84F040070D0F6
:100D30002078C04DC00749D06868C0F38100012801
:100D400007D06868C0F38100022809D16868C00331
:100D500006D52868800339D560680028E7D035E0DB
:100D60006068B0F5803F0BD010B1B0F5A02F11D066
:100D7000286820F480302860286820F4802002E071
:100D8000286840F480302860606890B1FFF7F0FB7D
:100D900006460AE0286840F480202860F0E700BF9B
:100DA000FFF7E6FB801B642873D828688003F7D51B
:100DB0000CE0FFF7DDFB064605E000BFFFF7D8FBC0
:100DC000801B6428F0D828688003F7D420789A4ED6
:100DD00080074FF001094FF0000839D5686810F01E
:100DE0000C0F07D06868C0F38100022809D1686839
:100DF000C00306D42868800714D52069012808D1CB
:100E000010E02069B0B1C6F80090FFF7B1FB0746CB
:100E100005E00AE1FFF7ACFBC01B0228C4D8286834
:100E20008007F7D52868616920F0F80040EAC10022
:100E300028600DE0C6F80080FFF79AFB074604E043
:100E4000FFF796FBC01B022823D828688007F7D439
:100E5000207800072CD57948A169D9B1C0F8009055
:100E6000FFF786FB074604E0FFF782FBC01B022862
:100E70000FD8686A8007F7D571484FF4FA510068B7
:100E8000B0FBF1F0009000BF0098411E0091FAD233
:100E90000EE080E0C0F80080FFF76AFB074604E040
:100EA000FFF766FBC01B022875D8686A8007F7D475
:100EB0002078400760D5E8690027C00008D4E869B9
:100EC00040F08050E861E869012700F08050009010
:100ED0005C480168C90513D40168834641F48071F8
:100EE0000160FFF745FB824606E000BFFFF740FBCD
:100EF000A0EB0A0064284ED8DBF80000C005F5D549
:100F0000E06801280AD008B1052813D0286A20F02B
:100F100001002862286A20F0040002E0286A40F0FC
:100F200001002862E06841F2883B98B1FFF720FB9E
:100F300082460BE0286A40F004002862EEE700BF1A
:100F4000FFF716FBA0EB0A0159455AD8286A80071B
:100F5000F6D50CE0FFF70CFB824605E0FFF708FB37
:100F6000A0EB0A0159454CD8286A8007F6D41FB176
:100F7000E86920F08050E861E06988B36968C1F3EE
:100F80008101022944D00228C6F8608004D0FFF70E
:100F9000EFFA044638E034E0FFF7EAFA074604E0E7
:100FA000FFF7E6FAC01B02282BD828688001F7D487
:100FB000206AB0F5803F05D16868A16820F4003050
:100FC00008436860D4E908010843696821F4741192
:100FD00008436860C6F86090FFF7CAFA044606E066
:100FE00025E000BFFFF7C4FA001B022809D82868D3
:100FF0008001F7D51BE000BFFFF7BAFA001B0228FB
:1010000002D90320BDE8F88F28688001F4D40EE0EF
:101010000128F7D06868226A00F48031914204D137
:10102000616A00F47010884201D00120EAE70020D4
:10103000E8E7000000100240000042428004424203
:1010400018000020007000407047704710B5040081
:1010500003D094F83D0010B107E0012010BD00203E
:1010600084F83C00204600F01EF8022084F83D0081
:10107000211D206800F05CFC012084F8460084F803
:101080003E0084F83F0084F8400084F8410084F872
:10109000420084F8430084F8440084F8450084F852
:1010A0003D00002010BD704790F83D10012901D08F
:1010B00001207047022180F83D100168CA6842F0A3
:1010C0000102CA6000680B49884208D0B0F1804F25
:1010D00005D00949884202D00849884204D1816874
:1010E00001F00701062903D0016841F00101016008
:1010F00000207047002C0140000400400008004020
:10110000704770B50446006801694FF00005C94397
:10111000890715D4C168C943890711D4E91E016143
:1011200001202077206880698007204602D0FFF7E1
:10113000E7FF04E000F098F8204600F096F82577E5
:1011400020680169C943490717D4C168C9434907E1
:1011500013D46FF0040101610220207720688069B8
:1011600010F4407F204602D0FFF7CAFF04E000F0F1
:101170007BF8204600F079F8257720680169C9439B
:10118000090716D4C168C943090712D46FF00801D2
:101190000161042020772068C0698007204602D0C2
:1011A000FFF7AEFF04E000F05FF8204600F05DF8C6
:1011B000257720680169C943C90617D4C168C943A6
:1011C000C90613D46FF01001016108202077206850
:1011D000C06910F4407F204602D0FFF791FF04E081
:1011E00000F042F8204600F040F8257720680169B9
:1011F000C943C90708D1C168C943C90704D1891EB9
:101200000161204600F032F820680169C9430906EF
:1012100009D4C168C943090605D46FF08001016192
:101220002046FFF711FF20680169C943490609D428
:10123000C168C943490605D46FF0400101612046E9
:1012400000F01EF820680169C94389060BD4C16803
:10125000C943890607D46FF0200101612046BDE82B
:101260007040FFF7F2BE70BD7047704700680349D9
:10127000884201D1FFF7A2BB704700000008004080
:101280007047FEE701684A69D24352050FD46FF4F4
:1012900080624A61002140F8301F2022427381732E
:1012A000026942F0040202610173012070470020CC
:1012B00070470000F8B50446C06A1E460D46174642
:1012C000082807D0012805D010F5803F02D0206BF8
:1012D000122804D12068016841F48071016013462E
:1012E00000224FF001112046009600F0B1F840B105
:1012F00020680068C00502D54FF400702064032008
:10130000F8BD2069B0F5804F0ED00620216800EAB4
:10131000D51040F0F000086133463A460B492046AC
:1013200000F0DEF878B902E005F0FE0000E0E8B277
:1013300021680861054933463A46891F204600F076
:10134000CFF80028DCD00120F8BD00000800010023
:101350002DE9F843044600680D46DDE90897016869
:101360009846164641F4807101604B4600224FF0CA
:1013700001112046009700F06BF848B12068006822
:10138000C00502D54FF4007020640320BDE8F88347
:10139000216805F0FE0008613B464A461549204693
:1013A00000F09EF888B920684169806900903A464B
:1013B0004946204600F0F2F848B1206C042804D1D8
:1013C0002068016841F4007101600120DEE7F5B298
:1013D000B8F1010F09D02168300A08613A46494640
:1013E000204600F0DBF80028E7D1206805610020E6
:1013F000CCE700000200010070B516460D46044619
:101400001EE02046FFF73EFF08B1012070BD681CBA
:1014100016D0FFF7ADF8801BA84200D885B9206828
:101420004069C04340070BD5002044F8300F20210D
:101430006173A073216941F0200121612073E4E709
:1014400020684069C0434007DBD4002070BD000025
:101450002DE9F047984617460D460446C1F3074666
:10146000DDF820902AE000BFB8F1FF3F26D0FFF75B
:101470007FF8A0EB0901414502D8B8F1000F1DD15A
:101480002068012E16D0806925EA00000004000CB7
:1014900012D00020B84211D1002044F8300F202192
:1014A0006173A073216941F0200121612073012043
:1014B000BDE8F0874069E7E70120EBE72068012EEF
:1014C0000AD0806925EA00000004000C06D0002044
:1014D000B842C9D00020EBE74069F3E70120F7E705
:1014E0002DE9F047984616460D4604464FF0000990
:1014F0004FF0200AC1F3074723E020684069C0434A
:10150000400515D42068016841F40071016021682C
:101510006FF480604861C4F8309084F83DA084F88E
:101520003E90216C41F00401216484F83C9021E05C
:10153000701C06D0FFF71CF8A0EB0800B04203D8DF
:1015400016B1012F1FD021E02068012F15D080692E
:1015500025EA00000004000C18D000BF44F8309FBA
:1015600084F80DA084F80E90216941F020012161DA
:1015700084F80C900120BDE8F087406925EA00005E
:101580000004000CEAD12068406901E0206880690D
:1015900025EA00000004000CAFD1ECE770B5164658
:1015A0000D4604461EE02046FFF76CFE08B1012000
:1015B00070BD681C16D0FEF7DBFF801BA84200D868
:1015C00085B920684069C04300060BD5002044F867
:1015D000300F20216173A073216941F02001216146
:1015E0002073E4E720684069C0430006DBD4002094
:1015F00070BDFEE7FEE710B5A0B00024802168466C
:10160000FEF760FE0021204600F053F88021684676
:1016100000F012F9641CE4B2082CF3D320B010BD22
:10162000F0B589B00024074620466D4604AE002A76
:1016300008DA4FF02D038DF800304FF00104C2F1AD
:10164000000214E006D14FF030008DF800004FF09A
:1016500001041AE04FF00A0C92FBFCF30CFB13237D
:1016600092FBFCF203F13003335400F10100002A35
:10167000F0D108E006EB0002A0F1010012F8012C05
:101680002A5504F101040028F4D14FF00000285538
:101690002A46384600F05EF809B02046F0BD10B585
:1016A0000224202000F0B4F82046BDE8104000F0ED
:1016B000AFB810B50C4600F01BF82046BDE810404E
:1016C000AFF30080094A10B51278040900F00F0149
:1016D000022A0AD17F2808D8084600F099F804F1B8
:1016E0001000BDE8104000F093B810BD04000020C9
:1016F00005490978022905D1072803D8B030C0B2BE
:1017000000F086B8704700000400002070B516464F
:1017100007291BD80F2819D8C0060C46050E2946E4
:101720002046FFF7C6FF0A48082100EB06100646D0
:1017300000F082F8641CE0B22946FFF7BAFF06F118
:101740000800BDE87040082100F076B870BD0000C8
:10175000B02400082DE9F04117460E460546002446
:101760000CE031462846FFF7D1FF6D1CEDB20F2D7E
:1017700002D90025B61CF6B2641C64B23A5D002A98
:10178000EFD12046BDE8F08110B5AE2000F040F862
:10179000402000F03DF8812000F03AF87F2000F072
:1017A00037F8A02000F034F8C02000F031F8A8206D
:1017B00000F02EF83F2000F02BF8D32000F028F89E
:1017C000002000F025F8D52000F022F8802000F05D
:1017D0001FF8D92000F01CF8F12000F019F8DA20E9
:1017E00000F016F8122000F013F8FFF758FF8D20D4
:1017F00000F00EF8142000F00BF8A42000F008F818
:10180000A62000F005F8BDE81040AF20AFF300803F
:101810001CB5002101918DF804108DF805004FF4DE
:10182000FA7000900348022301AA78214068FEF76D
:1018300069FF1CBD040000200EB54FF4FA728DE85C
:10184000070004480123402278214068FEF7F0FF9A
:101850000EBD0000040000200025FFF795FFFFF7F4
:10186000CAFE642000F012FC002108A20846FFF71F
:1018700071FF04464FF47A762A466D1CE0B20021CF
:10188000FFF7CEFE304600F001FCF5E76768685FC1
:1018900076616C3A0000000010B5502080F311888A
:1018A000BFF34F8FBFF36F8F00F02EFD18B10449C7
:1018B0004FF080500860002080F3118810BD0000B8
:1018C00004ED00E030B58FB028216846FEF7FAFC41
:1018D00014210AA8FEF7F6FC01210804CDE9001046
:1018E0000024029402250491CDE907504FF4E01042
:1018F00009906846FFF718FA08B172B6FEE70F20A4
:10190000CDE90A054FF48060CDE90C4002210AA818
:101910000E94FFF71DF9002801D072B6FEE70FB054
:1019200030BD70470148FFF7ECBB000024030020E6
:10193000F0B50268164B174C174D4FF08047984290
:1019400005D0B84203D0A04201D0A84203D122F072
:1019500070064A683243984205D0B84203D0A0428C
:1019600001D0A84203D122F44074CA6822434C69D2
:1019700022F08002224302608A68C2620A688262A0
:10198000984201D10969016301214161F0BD000064
:10199000002C01400004004000080040FEE7090759
:1019A000090E002804DB00F1E02080F800147047E5
:1019B00000F00F0000F1E02080F8141D70470000D7
:1019C00088B0FFF703F8FFF77DFF1D48816941F0FC
:1019D00020018161816901F020010791816941F055
:1019E00004018161816901F004010791816941F07D
:1019F000080181618069134900F0080007901248CE
:101A00004FF4804201601149416000218160C0E9CA
:101A1000031241618161C1610162FEF7AFFD08B14E
:101A200072B6FEE71C220A496846FEF719FC00213F
:101A3000684600F01CF80749086000F013F8FEE75C
:101A400000100240005400407C000020A0860100ED
:101A5000942400080000002001460020842900D0C2
:101A6000C81C704710B500F037FB002010BD7FB5D3
:101A70000D4604464169B0F9080081B1A16971B110
:101A8000FFF7EAFFD4E905128DE80700D4E900105A
:101A90002B46226900F00DFC039004B070BDFFF7E7
:101AA000DBFF03A9CDE90001208A2B4682B2D4E9ED
:101AB000001000F0D1FB012801D00020EDE70398D1
:101AC000EBE700002DE9F041184C0F46054666692A
:101AD0002068001D00F016FA38B9206890F82C1024
:101AE00001208840A1698143A161681C07D137B1F9
:101AF0002168BDE8F0410E48091D00F047BA206892
:101B00003544B5424560216805D2A068BDE8F04182
:101B1000091D00F023BA6068091D00F01FFA206B50
:101B2000854200D22563BDE8F08100001C00002042
:101B3000480400202DE9F041054600F033FA2E4C10
:101B40002069401C206120682C4F10B1E06940B32F
:101B50002DE025602069012829D1002606EB8600AA
:101B600007EB800000F0ECF9761C072EF6D3234833
:101B70008C3000F0E5F92148A03000F0E1F91F4871
:101B8000B43000F0DDF91D48C83000F0D9F91B4829
:101B9000DC3000F0D5F919488C3060601430A0605A
:101BA00005E02068E96AC06A884200D82560E06ADA
:101BB000401CE062E96A0120A26988401043A061EC
:101BC00001EB810007EB8000291D00F0DFF900F038
:101BD00009FAE06900280CD02068E96AC06A8842E6
:101BE00007D207494FF080500860BFF34F8FBFF313
:101BF0006F8FBDE8F08100001C0000206C03002006
:101C000004ED00E010B5044690F8510058B10128E9
:101C10000CD002280FD0502080F31188BFF34F8FD3
:101C2000BFF36F8FFEE7206B00F0F0F92046BDE8B0
:101C3000104000F0EBB910BD10484FF4406142076E
:101C400006D0C01D0D4920F00700411AC1F54061C2
:101C50000B4A00230144C2E900030839103A21F07D
:101C6000070111604B600B600B1AC0E90013936011
:101C70004FF000405360D060704700005C040020CB
:101C800068000020144E154CA6F1C8074FF080588C
:101C9000DFF84C9012E000BF00F084F9F068C568EE
:101CA000281D00F02FF92069401E2061E068401EC9
:101CB000E06000F097F92846FFF7A4FFE0680028ED
:101CC000EAD138680128F9D9C9F80080BFF34F8FED
:101CD000BFF36F8FF2E70000340400201C000020E7
:101CE00004ED00E02DE9F0479A46DDE909848146DC
:101CF0006FF00303206B03EB82021044089D20F079
:101D00000706700707D0502080F31188BFF34F8F6C
:101D1000BFF36F8FFEE723180A5C83F834200A5C58
:101D200012B1401C1028F6D3002784F84370072D09
:101D300000D30625E562C4E91157201D00F00BF918
:101D400004F1180000F007F92461C5F1070064628E
:101D5000A061E76484F8507052464946304600F06E
:101D6000BFF82060B8F1000F01D0C8F80040BDE80E
:101D7000F087000030B5114900E011460A68824240
:101D8000FBD34B685C18844203D140681844486018
:101D9000084643681C18944209D1084C103C24683A
:101DA000A24209D052681A4442600A68126802606E
:101DB000814200D0086030BD0460F9E7680000206F
:101DC00006484168096829B14168C968C968496815
:101DD000016370474FF0FF31FAE700001C0000205C
:101DE00008484068401C4FF0500080F3118804D030
:101DF000BFF34F8FBFF36F8FFEE7BFF34F8FBFF37C
:101E00006F8FFEE7700000202DE9F04105460027A6
:101E100000F098F9314E306808B9FFF70DFFF0680F
:101E200005424BD1C5B3083568070ED005F0070051
:101E3000C0F108000544680707D0502080F31188DE
:101E4000BFF34F8FBFF36F8FFEE72DB370688542EE
:101E500034D82248103001460C6801E020460C4678
:101E60006168A94202D221680029F7D131688C4209
:101E700024D007682168016060680837411B102979
:101E80000FD96019420708D0502080F31188BFF3A2
:101E90004F8FBFF36F8FFEE710E041606560FFF783
:101EA00069FF61687068401A7060B268904200D241
:101EB000B060F06801430020C4E9000100F088FA36
:101EC000780707D0502080F31188BFF34F8FBFF3FE
:101ED0006F8FFEE73846BDE8F08100005800002013
:101EE00010B5031F4FF080741C601B1F21F001010F
:101EF0001960191F024B0B60143940380A6010BD7D
:101F0000E11D0008D0E9013201699A60D0E901239E
:101F10005A604A68824201D182684A6000220261A6
:101F20000868401E0860086870470000034B0360A3
:101F300003F154000860802010607047D00000203A
:101F400000F108014FF0FF32C0E90112C1600161E8
:101F500000210160704700210161704730B50B68B6
:101F60005A1C02D000F1080202E0026904E0224695
:101F7000546825689D42FAD953684B6099608A601D
:101F8000516008610168491C016030BD42684A60C7
:101F900093688B6093685960916008610168491C7F
:101FA00001607047502080F31188BFF34F8FBFF35B
:101FB0006F8F0A494868401C486001280CD10848C6
:101FC000006810F0FF0F07D0502080F31188BFF396
:101FD0004F8FBFF36F8FFEE7704700007000002047
:101FE00004ED00E00849486828B1401E486001D16E
:101FF00080F311887047502080F31188BFF34F8F12
:10200000BFF36F8FFEE700007000002070B500285E
:1020100027D0144DA0F108046168E868014207D197
:10202000502080F31188BFF34F8FBFF36F8FFEE70F
:1020300022683AB1502080F31188BFF34F8FBFF36D
:102040006F8FFEE78143616000F07CF8606869682B
:10205000084468602046FFF78DFEBDE8704000F040
:10206000B7B970BD580000204FF0E0200021016199
:10207000816105494FF47A720968B1FBF2F1491E9A
:1020800041610721016170471800002010B502006E
:1020900014D00F48806B38B1502080F31188BFF303
:1020A0004F8FBFF36F8FFEE700F04CF80021104612
:1020B000FFF708FD00F08CF9002807D105494FF023
:1020C00080500860BFF34F8FBFF36F8F10BD0000CB
:1020D0001C00002004ED00E010B586B0002403943D
:1020E00005AA04A903A80494FFF720FFDDE9030172
:1020F0000094CDE9011000230EA11048059A00F0CC
:10210000D8F80F490028486311D0502080F3118877
:10211000BFF34F8FBFF36F8F4FF0FF300863012085
:10212000C8614C6106B0BDE8104000F041B806B08F
:1021300010BD000049444C4500000000851C00080B
:102140001C0000200248816B491C8163704700001D
:102150001C0000201448816B11B1012141627047BD
:10216000002141628169B1FA81F1C1F11F0101EBE6
:1021700081020E4951F822306BB101EB820101F16D
:1021800008034A6852684A609A4201D152684A601C
:10219000D16801607047502080F31188BFF34F8FE2
:1021A000BFF36F8FFEE700001C0000206C030020CF
:1021B0001CB5264908780190FF20087008788DF832
:1021C00000009DF800009DF8002000F0F000904213
:1021D00007D0502080F31188BFF34F8FBFF36F8F6C
:1021E000FEE79DF800001A4B00F050001870072021
:1021F000986005E09DF8002052008DF80020401EF8
:102200009DF800201206F5D49860032807D05020CE
:1022100080F31188BFF34F8FBFF36F8FFEE74FF44A
:1022200040709860019808700A48016841F4700194
:102230000160016841F070410160FFF715FF002067
:102240005860FDF7B3FF00201CBD000000E400E073
:102250007000002020ED00E02DE9FF5F8346DDE9FE
:102260000E87994616468A469000FFF7CDFD050079
:102270001CD05420FFF7C8FD040014D000202563B3
:1022800084F85100CDE90240CDE900874B46324643
:1022900051465846FFF726FD2046FFF74BFC01202C
:1022A00004B0BDE8F09F2846FFF7B0FE4FF0FF30C6
:1022B000F6E7F0B585B0DDE90B640A9DA6B1DCB1A7
:1022C000542700972663022684F85160002604AF45
:1022D000CDE90246CDE90057FFF704FD2046FFF7A0
:1022E00029FC049805B0F0BD502080F31188BFF39D
:1022F0004F8FBFF36F8FFEE7502080F31188BFF33D
:102300004F8FBFF36F8FFEE72DE9F0412E4C002772
:10231000A06B40B1206A401C2062606A00B10127B6
:102320003846BDE8F0816669761C666113D1606845
:10233000006838B1502080F31188BFF34F8FBFF38E
:102340006F8FFEE76068A1686160A060A06A401CB2
:10235000A062FFF735FD206BDFF87080864209D35D
:102360006068006880B16068C068C5686868864257
:102370000DD220632068C06A00EB800158F821006C
:102380000128CAD90127C8E74FF0FF30F1E7281D1F
:10239000FFF7B8FDA86A18B105F11800FFF7B2FD04
:1023A000E86A0121A26981401143A16100EB80012B
:1023B00008EB8100291DFFF7E9FDE86A2168C96A79
:1023C0008842CDD30127CBE71C0000206C030020FE
:1023D0002DE9F0472C4D00242746A86B38B1FFF7B4
:1023E000E1FDA86B401EA863A86B40B146E05020F9
:1023F00080F31188BFF34F8FBFF36F8FFEE729691A
:10240000224E0120D1B3A6F1B40980463068E8B16C
:10241000F068C46804F11800FFF774FD201DFFF791
:1024200071FDE06AAA6908FA00F11143A96100EBA5
:10243000800109EB8100211DFFF7A8FDE06A2968F2
:10244000C96A8842E2D3C5F82480DFE70CB1FFF700
:10245000B7FC2C6A44B14646FFF756FF00B16E62E6
:10246000641EF9D100202862686A38B10849012742
:1024700038070860BFF34F8FBFF36F8FFFF7B2FDD0
:102480003846BDE8F08700001C0000202004002032
:1024900004ED00E0DC2C00085918000800000000E2
:1024A00000000000800000000000000000000000AC
:1024B000000000000000000000000000000000001C
:1024C00000FE020202020202003F20202020202003
:1024D00000000000000000000000000000000000FC
:1024E00000FE020202020202003F202020202020E3
:1024F00000FE020202020202003F202020202020D3
:1025000000FE020202020202003F202020202020C2
:1025100000FE020202020202003F202020202020B2
:1025200000FE020202020202003F202020202020A2
:1025300000FE020202020202003F20202020202092
:10254000000000000000000000000000000000008B
:10255000000000000000000000000000000000007B
:10256000000000000000000000000000000000006B
:1025700000FE020202020202003F20202020202052
:1025800000FE020202020202003F20202020202042
:1025900000FE020202020202003F20202020202032
:1025A00000FE020202020202003F20202020202022
:1025B00000FE020202020202003F20202020202012
:1025C00000FE020202020202003F20202020202002
:1025D00000FE020202020202003F202020202020F2
:1025E00000FE020202020202003F202020202020E2
:1025F00000FE020202020202003F202020202020D2
:1026000000FE020202020202003F202020202020C1
:1026100000FE020202020202003F202020202020B1
:1026200000FE020202020202003F202020202020A1
:1026300000FE020202020202003F20202020202091
:1026400000FE020202020202003F20202020202081
:1026500000FE020202020202003F20202020202071
:1026600000FE020202020202003F20202020202061
:10267000000000000000000000000000000000005A
:10268000000000000000000000000000000000004A
:10269000000000000000000000000000000000003A
:1026A000000000000000000000000000000000002A
:1026B000000000000000000000000000000000001A
:1026C000000000F8000000000000003300000000DF
:1026D00000100C02100C02000000000000000000BE
:1026E0000040C07840C0780000043F04043F04006C
:1026F00000708888FC08300000182020FF211E0090
:10270000F008F0806018000000310C031E211E004C
:1027100000F00888700000001E21232C19272110CA
:1027200000120E0000000000000000000000000089
:10273000000000E01804020000000007182040001C
:1027400000020418E000000000402018070000000C
:10275000404080F0804040000202010F0102020070
:1027600000000000E0000000000101010F01010174
:102770000000000000000000009070000000000059
:102780000000000000000000000101010101010043
:1027900000000000000000000030300000000000D9
:1027A00000000000C03804000060180700000000AE
:1027B00000E010080810E000000F102020100F00AB
:1027C00000001010F8000000000020203F20200032
:1027D000007008080808F00000302824222130008A
:1027E00000300808088870000018202121221C00F1
:1027F0000000804030F8000000060524243F242417
:1028000000F88888880808000019202020110E0090
:1028100000E0108888900000000F112020201F0089
:1028200000180808886818000000003E0100000039
:102830000070880808887000001C222121221C00DA
:1028400000F008080810E0000001122222110F0019
:10285000000000C0C0000000000000303000000098
:102860000000008000000000000000E00000000008
:102870000000804020100800000102040810200021
:1028800000404040404040000002020202020200BC
:102890000008102040800000002010080402010001
:1028A0000070480808887000000000303700000001
:1028B000C030C828E810E000071827282F28170084
:1028C0000000C038E0000000203C2302022738202E
:1028D00008F8888888700000203F202020110E0012
:1028E000C030080808083800071820202010080009
:1028F00008F808080810E000203F202020100F00F2
:1029000008F88888E8081000203F202023201800BD
:1029100008F88888E8081000203F20000300000025
:10292000C03008080838000007182020221E0200C6
:1029300008F808000008F808203F210101213F2085
:10294000000808F8080800000020203F20200000B0
:1029500000000808F8080800C08080807F000000A0
:1029600008F888C028180800203F200126382000D9
:1029700008F8080000000000203F20202020300040
:1029800008F8F800F8F80800203F013E013F200059
:1029900008F830C00008F808203F200007183F0062
:1029A000E01008080810E0000F10202020100F0091
:1029B00008F808080808F000203F21010101000084
:1029C000E01008080810E0000F10282830504F00D1
:1029D00008F8888888887000203F2000030C302089
:1029E00000708808080838000038202121221C00C7
:1029F000180808F8080818000000203F2000000010
:102A000008F808000008F808001F202020201F00F8
:102A10000878880000C83808000007380E01000058
:102A200008F800F800F8080000033E013E0300002B
:102A3000081868808068180820302C03032C302088
:102A40000838C800C83808000000203F20000000F7
:102A500010080808C838080020382621202018004F
:102A6000000000FE020202000000007F4040400023
:102A7000000438C000000000000000010638C0005B
:102A800000020202FE000000004040407F00000003
:102A9000000004020204000000000000000000002A
:102AA0000000000000000000808080808080808026
:102AB000000202040000000000000000000000000E
:102AC000000080808000000000192424123F2000B4
:102AD00010F0008080000000003F112020110E0047
:102AE0000000008080800000000E112020201100D6
:102AF000000080808090F000001F202020103F20E8
:102B00000000808080800000001F242424241700FF
:102B1000008080E0909020000020203F20200000D6
:102B20000000808080808000006B9494949360000B
:102B300010F0008080800000203F210000203F2016
:102B400000809898000000000020203F2020000016
:102B5000000000809898000000C08080807F000006
:102B600010F0000080808000203F240629302000E3
:102B7000001010F8000000000020203F202000007E
:102B80008080808080808000203F20003F20003FA8
:102B90008080008080800000203F210000203F20B6
:102BA0000000808080800000001F202020201F0067
:102BB000808000808000000080FF912020110E00A6
:102BC0000000008080008000000E11202091FF8016
:102BD000808080008080800020203F212000010034
:102BE0000000808080808000003324242424190089
:102BF000008080E0808000000000001F2020100086
:102C00008080000000808000001F202020103F20D6
:102C1000808080008080800000030C300C03000066
:102C20008080008080008080010E300C0738060113
:102C300000808080008080000020310E2E31200036
:102C400080808000008080800081867818060100E6
:102C500000808080808080000021302C2221300084
:102C60000000000000FC020200000000013E4040A5
:102C700000000000FF00000000000000FF00000056
:102C80000202FC000000000040403E010000000085
:102C90000002010202040200000000000000000027
:102CA0000000000000000000000000000000000024
:102CB000010202030405060708090A0B0C0D0E0F9A
:102CC00010100000000000000000010203040607CD
:102CD0000809000000000102030400006465666149
:102CE000756C745461736B00082D0008000000209F
:102CF0007C00000028010008842D00087C000020D2
:102D0000441600004401000800000000020000001A
:102D10007C00002001000000100000000000000006
:102D20000024F4000000000000000000000000008B
:102D30000000000000000000000000000000000093
:102D40000000000000000000000000000000000083
:102D50000000000000000000000000000000000073
:102D60000000000000000000000000000000000063
:102D7000000000000000000000000000AAAAAAAAAB
:042D8000000000004F
:04000005080000ED02
:00000001FF
